{
  "_format": "hh3-artifact-1",
  "contractName": "RocketMechanicForMoto",
  "sourceName": "contracts/RocketMechanicForMoto.sol",
  "abi": [
    {
      "inputs": [],
      "stateMutability": "nonpayable",
      "type": "constructor"
    },
    {
      "anonymous": false,
      "inputs": [
        {
          "indexed": false,
          "internalType": "string",
          "name": "newEngineType",
          "type": "string"
        }
      ],
      "name": "EngineChanged",
      "type": "event"
    },
    {
      "anonymous": false,
      "inputs": [
        {
          "indexed": false,
          "internalType": "uint256",
          "name": "newUpgradeLevel",
          "type": "uint256"
        }
      ],
      "name": "EngineUpgraded",
      "type": "event"
    },
    {
      "anonymous": false,
      "inputs": [
        {
          "indexed": false,
          "internalType": "uint256",
          "name": "amount",
          "type": "uint256"
        }
      ],
      "name": "FuelAdded",
      "type": "event"
    },
    {
      "anonymous": false,
      "inputs": [],
      "name": "TrumpModeInstalled",
      "type": "event"
    },
    {
      "inputs": [],
      "name": "addFuel",
      "outputs": [],
      "stateMutability": "nonpayable",
      "type": "function"
    },
    {
      "inputs": [
        {
          "internalType": "string",
          "name": "newEngineType",
          "type": "string"
        }
      ],
      "name": "changeEngine",
      "outputs": [],
      "stateMutability": "nonpayable",
      "type": "function"
    },
    {
      "inputs": [],
      "name": "engineType",
      "outputs": [
        {
          "internalType": "string",
          "name": "",
          "type": "string"
        }
      ],
      "stateMutability": "view",
      "type": "function"
    },
    {
      "inputs": [],
      "name": "engineUpgradeLevel",
      "outputs": [
        {
          "internalType": "uint256",
          "name": "",
          "type": "uint256"
        }
      ],
      "stateMutability": "view",
      "type": "function"
    },
    {
      "inputs": [],
      "name": "fuelAmount",
      "outputs": [
        {
          "internalType": "uint256",
          "name": "",
          "type": "uint256"
        }
      ],
      "stateMutability": "view",
      "type": "function"
    },
    {
      "inputs": [],
      "name": "getMotoStatus",
      "outputs": [
        {
          "internalType": "string",
          "name": "",
          "type": "string"
        }
      ],
      "stateMutability": "view",
      "type": "function"
    },
    {
      "inputs": [],
      "name": "installTrumpMode",
      "outputs": [],
      "stateMutability": "nonpayable",
      "type": "function"
    },
    {
      "inputs": [],
      "name": "isTrumpModeActive",
      "outputs": [
        {
          "internalType": "bool",
          "name": "",
          "type": "bool"
        }
      ],
      "stateMutability": "view",
      "type": "function"
    },
    {
      "inputs": [],
      "name": "upgradeEngine",
      "outputs": [],
      "stateMutability": "nonpayable",
      "type": "function"
    }
  ],
  "bytecode": "0x608060405234801561000f575f80fd5b5060408051808201909152600881526714dd185b99185c9960c21b60208201525f9061003b90826100ee565b505f60018190556002805460ff191690556003556101a9565b634e487b7160e01b5f52604160045260245ffd5b600181811c9082168061007c57607f821691505b60208210810361009a57634e487b7160e01b5f52602260045260245ffd5b50919050565b601f8211156100e9575f81815260208120601f850160051c810160208610156100c65750805b601f850160051c820191505b818110156100e5578281556001016100d2565b5050505b505050565b81516001600160401b0381111561010757610107610054565b61011b816101158454610068565b846100a0565b602080601f83116001811461014e575f84156101375750858301515b5f19600386901b1c1916600185901b1785556100e5565b5f85815260208120601f198616915b8281101561017c5788860151825594840194600190910190840161015d565b508582101561019957878501515f19600388901b60f8161c191681555b5050505050600190811b01905550565b610a1d806101b65f395ff3fe608060405234801561000f575f80fd5b5060043610610090575f3560e01c806390d1ad6b1161006357806390d1ad6b146100d7578063aa9c6d3e146100df578063e6d95bac146100e7578063f2963c0c146100fa578063f7bc0dea14610117575f80fd5b80630872c6af14610094578063543dd2ec1461009e57806357fffd4a146100ba57806382ce2220146100c2575b5f80fd5b61009c610120565b005b6100a760035481565b6040519081526020015b60405180910390f35b61009c6101d7565b6100ca61028a565b6040516100b191906105b7565b61009c61031f565b6100ca610356565b61009c6100f53660046105fd565b6103e1565b6002546101079060ff1681565b60405190151581526020016100b1565b6100a760015481565b5f603242443360405160200161015b93929190928352602083019190915260601b6bffffffffffffffffffffffff1916604082015260540190565b604051602081830303815290604052805190602001205f1c61017d91906106bc565b6101889060016106e3565b90508060015f82825461019b91906106e3565b90915550506040518181527f5e6829d83a863cd78c8884b194b9b22082eb2fcdce50029ce263e5a7aa076f35906020015b60405180910390a150565b5f600a42443360405160200161021293929190928352602083019190915260601b6bffffffffffffffffffffffff1916604082015260540190565b604051602081830303815290604052805190602001205f1c61023491906106bc565b61023f9060016106e3565b90508060035f82825461025291906106e3565b90915550506003546040519081527f54c43b71da68e46498b17bbd277d3545e49eee80c6b7d5c592dbaa78a8529041906020016101cc565b6002546060905f9060ff166102be576040518060400160405280600781526020016634b730b1ba34b360c91b8152506102dd565b6040518060400160405280600581526020016430b1ba34b360d91b8152505b90505f6102eb60015461041c565b826102f760035461041c565b60405160200161030a949392919061074f565b60405160208183030381529060405291505090565b6002805460ff191660011790556040517fae9962b58bb23fd8452db9310e8cb140b85650a381a92b2f532cd5929439dd0c905f90a1565b5f8054610362906106fc565b80601f016020809104026020016040519081016040528092919081815260200182805461038e906106fc565b80156103d95780601f106103b0576101008083540402835291602001916103d9565b820191905f5260205f20905b8154815290600101906020018083116103bc57829003601f168201915b505050505081565b5f6103ec82826108d9565b507f9f30eaf709066381d2943e3aa69c1125b98cd1c7b87f716ccead0290edd4434c816040516101cc91906105b7565b6060815f036104425750506040805180820190915260018152600360fc1b602082015290565b60408051606480825260a082019092525f90826020820181803683370190505090505f5b84156104ce575f610478600a876106bc565b9050610485600a87610995565b95506104928160306106e3565b60f81b83836104a0816109a8565b9450815181106104b2576104b26109c0565b60200101906001600160f81b03191690815f1a90535050610466565b5f8167ffffffffffffffff8111156104e8576104e86105e9565b6040519080825280601f01601f191660200182016040528015610512576020820181803683370190505b5090505f5b8281101561058b57838161052c6001866109d4565b61053691906109d4565b81518110610546576105466109c0565b602001015160f81c60f81b828281518110610563576105636109c0565b60200101906001600160f81b03191690815f1a90535080610583816109a8565b915050610517565b5095945050505050565b5f5b838110156105af578181015183820152602001610597565b50505f910152565b602081525f82518060208401526105d5816040850160208701610595565b601f01601f19169190910160400192915050565b634e487b7160e01b5f52604160045260245ffd5b5f6020828403121561060d575f80fd5b813567ffffffffffffffff80821115610624575f80fd5b818401915084601f830112610637575f80fd5b813581811115610649576106496105e9565b604051601f8201601f19908116603f01168101908382118183101715610671576106716105e9565b81604052828152876020848701011115610689575f80fd5b826020860160208301375f928101602001929092525095945050505050565b634e487b7160e01b5f52601260045260245ffd5b5f826106ca576106ca6106a8565b500690565b634e487b7160e01b5f52601160045260245ffd5b808201808211156106f6576106f66106cf565b92915050565b600181811c9082168061071057607f821691505b60208210810361072e57634e487b7160e01b5f52602260045260245ffd5b50919050565b5f8151610745818560208601610595565b9290920192915050565b6f02a3cb8329032329036b7ba32bab91d160851b81525f60105f8754610774816106fc565b6001828116801561078c57600181146107a5576107d5565b60ff1984168887015282151583028801860194506107d5565b8b5f526020805f205f5b858110156107ca5781548b82018a01529084019082016107af565b505050858389010194505b5050505061087f61087261086c61083761083161081761081187750161028bab0b73a34ba32903213b2b9b9b2b731b29d160551b815260160190565b8d610734565b6d0161026b7b232902a393ab6b81d160951b8152600e0190565b8a610734565b7f2c204e6976656175206427616d656c696f726174696f6e206475206d6f7465758152620391d160ed1b602082015260230190565b87610734565b601760f91b815260010190565b98975050505050505050565b601f8211156108d4575f81815260208120601f850160051c810160208610156108b15750805b601f850160051c820191505b818110156108d0578281556001016108bd565b5050505b505050565b815167ffffffffffffffff8111156108f3576108f36105e9565b6109078161090184546106fc565b8461088b565b602080601f83116001811461093a575f84156109235750858301515b5f19600386901b1c1916600185901b1785556108d0565b5f85815260208120601f198616915b8281101561096857888601518255948401946001909101908401610949565b508582101561098557878501515f19600388901b60f8161c191681555b5050505050600190811b01905550565b5f826109a3576109a36106a8565b500490565b5f600182016109b9576109b96106cf565b5060010190565b634e487b7160e01b5f52603260045260245ffd5b818103818111156106f6576106f66106cf56fea2646970667358221220b72be36376c8ffd8fa10f2ee5c00e5c4342cbd1e3fd8aa1a1ad543fcab93bbac64736f6c63430008140033",
  "linkReferences": {},
  "deployedLinkReferences": {},
  "immutableReferences": {},
  "inputSourceName": "project/contracts/RocketMechanicForMoto.sol",
  "buildInfoId": "solc-0_8_20-cc0a9d54d3dbd999f243cf1749050d1c8d9a9d11"
}